{
  "_format": "hh-sol-artifact-1",
  "contractName": "UserRegistration",
  "sourceName": "contracts/Lock.sol",
  "abi": [
    {
      "anonymous": false,
      "inputs": [
        {
          "indexed": true,
          "internalType": "address",
          "name": "customer",
          "type": "address"
        },
        {
          "indexed": true,
          "internalType": "address",
          "name": "owner",
          "type": "address"
        },
        {
          "indexed": false,
          "internalType": "uint256",
          "name": "rating",
          "type": "uint256"
        },
        {
          "indexed": false,
          "internalType": "string",
          "name": "description",
          "type": "string"
        },
        {
          "indexed": false,
          "internalType": "uint256",
          "name": "reviewTime",
          "type": "uint256"
        }
      ],
      "name": "ReviewSubmitted",
      "type": "event"
    },
    {
      "anonymous": false,
      "inputs": [
        {
          "indexed": true,
          "internalType": "address",
          "name": "user",
          "type": "address"
        },
        {
          "indexed": false,
          "internalType": "string",
          "name": "role",
          "type": "string"
        }
      ],
      "name": "UserRegistered",
      "type": "event"
    },
    {
      "anonymous": false,
      "inputs": [
        {
          "indexed": true,
          "internalType": "address",
          "name": "owner",
          "type": "address"
        },
        {
          "indexed": true,
          "internalType": "address",
          "name": "customer",
          "type": "address"
        },
        {
          "indexed": false,
          "internalType": "string",
          "name": "code",
          "type": "string"
        }
      ],
      "name": "VerificationCodeIssued",
      "type": "event"
    },
    {
      "anonymous": false,
      "inputs": [
        {
          "indexed": true,
          "internalType": "address",
          "name": "customer",
          "type": "address"
        },
        {
          "indexed": false,
          "internalType": "string",
          "name": "voucherCode",
          "type": "string"
        },
        {
          "indexed": false,
          "internalType": "uint256",
          "name": "pointsUsed",
          "type": "uint256"
        },
        {
          "indexed": false,
          "internalType": "uint256",
          "name": "voucherType",
          "type": "uint256"
        }
      ],
      "name": "VoucherRedeemed",
      "type": "event"
    },
    {
      "inputs": [],
      "name": "getAllRegisteredOwners",
      "outputs": [
        {
          "internalType": "address[]",
          "name": "",
          "type": "address[]"
        }
      ],
      "stateMutability": "view",
      "type": "function"
    },
    {
      "inputs": [
        {
          "internalType": "address",
          "name": "ownerAddress",
          "type": "address"
        }
      ],
      "name": "getAverageRating",
      "outputs": [
        {
          "internalType": "uint256",
          "name": "",
          "type": "uint256"
        }
      ],
      "stateMutability": "view",
      "type": "function"
    },
    {
      "inputs": [
        {
          "internalType": "address",
          "name": "customer",
          "type": "address"
        }
      ],
      "name": "getCustomerPoints",
      "outputs": [
        {
          "internalType": "uint256",
          "name": "",
          "type": "uint256"
        }
      ],
      "stateMutability": "view",
      "type": "function"
    },
    {
      "inputs": [
        {
          "internalType": "address",
          "name": "user",
          "type": "address"
        }
      ],
      "name": "getOwnerDetails",
      "outputs": [
        {
          "internalType": "string",
          "name": "name",
          "type": "string"
        },
        {
          "internalType": "string",
          "name": "location",
          "type": "string"
        },
        {
          "internalType": "string",
          "name": "contactNumber",
          "type": "string"
        },
        {
          "internalType": "string",
          "name": "registrationNo",
          "type": "string"
        },
        {
          "internalType": "string",
          "name": "ipfsHash",
          "type": "string"
        }
      ],
      "stateMutability": "view",
      "type": "function"
    },
    {
      "inputs": [
        {
          "internalType": "address",
          "name": "ownerAddress",
          "type": "address"
        }
      ],
      "name": "getOwnerReviews",
      "outputs": [
        {
          "components": [
            {
              "internalType": "address",
              "name": "reviewer",
              "type": "address"
            },
            {
              "internalType": "uint256",
              "name": "rating",
              "type": "uint256"
            },
            {
              "internalType": "string",
              "name": "description",
              "type": "string"
            },
            {
              "internalType": "uint256",
              "name": "reviewTime",
              "type": "uint256"
            }
          ],
          "internalType": "struct UserRegistration.Review[]",
          "name": "",
          "type": "tuple[]"
        }
      ],
      "stateMutability": "view",
      "type": "function"
    },
    {
      "inputs": [
        {
          "internalType": "address",
          "name": "customer",
          "type": "address"
        }
      ],
      "name": "getOwnersForCustomer",
      "outputs": [
        {
          "internalType": "address[]",
          "name": "",
          "type": "address[]"
        }
      ],
      "stateMutability": "view",
      "type": "function"
    },
    {
      "inputs": [],
      "name": "getRedeemedVouchers",
      "outputs": [
        {
          "components": [
            {
              "internalType": "string",
              "name": "code",
              "type": "string"
            },
            {
              "internalType": "uint256",
              "name": "voucherType",
              "type": "uint256"
            },
            {
              "internalType": "uint256",
              "name": "redeemedAt",
              "type": "uint256"
            },
            {
              "internalType": "bool",
              "name": "isUsed",
              "type": "bool"
            }
          ],
          "internalType": "struct UserRegistration.Voucher[]",
          "name": "",
          "type": "tuple[]"
        }
      ],
      "stateMutability": "view",
      "type": "function"
    },
    {
      "inputs": [
        {
          "internalType": "address",
          "name": "owner",
          "type": "address"
        }
      ],
      "name": "getVerificationCode",
      "outputs": [
        {
          "internalType": "string",
          "name": "",
          "type": "string"
        }
      ],
      "stateMutability": "view",
      "type": "function"
    },
    {
      "inputs": [
        {
          "internalType": "address",
          "name": "owner",
          "type": "address"
        }
      ],
      "name": "getVerificationCodeExpiry",
      "outputs": [
        {
          "internalType": "uint256",
          "name": "",
          "type": "uint256"
        }
      ],
      "stateMutability": "view",
      "type": "function"
    },
    {
      "inputs": [
        {
          "internalType": "address",
          "name": "owner",
          "type": "address"
        },
        {
          "internalType": "address",
          "name": "customer",
          "type": "address"
        }
      ],
      "name": "isCodeExpired",
      "outputs": [
        {
          "internalType": "bool",
          "name": "",
          "type": "bool"
        }
      ],
      "stateMutability": "view",
      "type": "function"
    },
    {
      "inputs": [
        {
          "internalType": "address",
          "name": "user",
          "type": "address"
        }
      ],
      "name": "isCustomerRegistered",
      "outputs": [
        {
          "internalType": "bool",
          "name": "",
          "type": "bool"
        }
      ],
      "stateMutability": "view",
      "type": "function"
    },
    {
      "inputs": [
        {
          "internalType": "address",
          "name": "user",
          "type": "address"
        }
      ],
      "name": "isOwnerRegistered",
      "outputs": [
        {
          "internalType": "bool",
          "name": "",
          "type": "bool"
        }
      ],
      "stateMutability": "view",
      "type": "function"
    },
    {
      "inputs": [
        {
          "internalType": "address",
          "name": "customer",
          "type": "address"
        }
      ],
      "name": "issueVerificationCode",
      "outputs": [],
      "stateMutability": "nonpayable",
      "type": "function"
    },
    {
      "inputs": [
        {
          "internalType": "address",
          "name": "",
          "type": "address"
        },
        {
          "internalType": "address",
          "name": "",
          "type": "address"
        }
      ],
      "name": "issuedCodes",
      "outputs": [
        {
          "internalType": "string",
          "name": "code",
          "type": "string"
        },
        {
          "internalType": "uint256",
          "name": "issuedAt",
          "type": "uint256"
        },
        {
          "internalType": "bool",
          "name": "isIssued",
          "type": "bool"
        }
      ],
      "stateMutability": "view",
      "type": "function"
    },
    {
      "inputs": [
        {
          "internalType": "address",
          "name": "ownerAddress",
          "type": "address"
        },
        {
          "internalType": "uint256",
          "name": "rating",
          "type": "uint256"
        },
        {
          "internalType": "string",
          "name": "description",
          "type": "string"
        }
      ],
      "name": "leaveReview",
      "outputs": [],
      "stateMutability": "nonpayable",
      "type": "function"
    },
    {
      "inputs": [
        {
          "internalType": "address",
          "name": "owner",
          "type": "address"
        }
      ],
      "name": "ownerReviewsCount",
      "outputs": [
        {
          "internalType": "uint256",
          "name": "",
          "type": "uint256"
        }
      ],
      "stateMutability": "view",
      "type": "function"
    },
    {
      "inputs": [
        {
          "internalType": "uint256",
          "name": "voucherType",
          "type": "uint256"
        }
      ],
      "name": "redeemVoucher",
      "outputs": [],
      "stateMutability": "nonpayable",
      "type": "function"
    },
    {
      "inputs": [],
      "name": "registerCustomer",
      "outputs": [],
      "stateMutability": "nonpayable",
      "type": "function"
    },
    {
      "inputs": [
        {
          "internalType": "string",
          "name": "name",
          "type": "string"
        },
        {
          "internalType": "string",
          "name": "location",
          "type": "string"
        },
        {
          "internalType": "string",
          "name": "contactNumber",
          "type": "string"
        },
        {
          "internalType": "string",
          "name": "registrationNo",
          "type": "string"
        },
        {
          "internalType": "string",
          "name": "_ipfsHash",
          "type": "string"
        }
      ],
      "name": "registerOwner",
      "outputs": [],
      "stateMutability": "nonpayable",
      "type": "function"
    },
    {
      "inputs": [
        {
          "internalType": "address",
          "name": "",
          "type": "address"
        }
      ],
      "name": "registeredCustomers",
      "outputs": [
        {
          "internalType": "uint256",
          "name": "points",
          "type": "uint256"
        },
        {
          "internalType": "bool",
          "name": "isRegistered",
          "type": "bool"
        }
      ],
      "stateMutability": "view",
      "type": "function"
    },
    {
      "inputs": [
        {
          "internalType": "address",
          "name": "",
          "type": "address"
        }
      ],
      "name": "registeredOwners",
      "outputs": [
        {
          "internalType": "string",
          "name": "name",
          "type": "string"
        },
        {
          "internalType": "string",
          "name": "location",
          "type": "string"
        },
        {
          "internalType": "string",
          "name": "contactNumber",
          "type": "string"
        },
        {
          "internalType": "string",
          "name": "registrationNo",
          "type": "string"
        },
        {
          "internalType": "string",
          "name": "ipfsHash",
          "type": "string"
        },
        {
          "internalType": "bool",
          "name": "isRegistered",
          "type": "bool"
        },
        {
          "internalType": "uint256",
          "name": "totalRating",
          "type": "uint256"
        },
        {
          "internalType": "uint256",
          "name": "reviewCount",
          "type": "uint256"
        }
      ],
      "stateMutability": "view",
      "type": "function"
    },
    {
      "inputs": [
        {
          "internalType": "string",
          "name": "voucherCode",
          "type": "string"
        }
      ],
      "name": "useVoucher",
      "outputs": [],
      "stateMutability": "nonpayable",
      "type": "function"
    }
  ],
  "bytecode": "0x608060405234801561001057600080fd5b506153d4806100206000396000f3fe608060405234801561001057600080fd5b50600436106101425760003560e01c80637d7ef9cd116100b8578063c3bb81211161007c578063c3bb8121146103db578063c8b675221461040f578063d3ecacb81461043f578063e06ec3841461045b578063e46f570f1461048b578063fa53e23d146104a957610142565b80637d7ef9cd146102e4578063894bc2781461031457806391a0e0a91461034b578063aed7dd341461037b578063b5975003146103ab57610142565b806337b3b53e1161010a57806337b3b53e146101fe5780634b29173d1461021a578063515f711f146102365780635c8ae54c146102685780635d8af05b1461029857806368e7dc67146102c857610142565b80630d75b8d5146101475780631c6d6b5e14610177578063251fff581461019357806327357011146101c45780632967d1d8146101ce575b600080fd5b610161600480360381019061015c9190613d0f565b6104c7565b60405161016e9190614946565b60405180910390f35b610191600480360381019061018c9190613f0b565b6106f0565b005b6101ad60048036038101906101a89190613d0f565b610a27565b6040516101bb929190614df5565b60405180910390f35b6101cc610a58565b005b6101e860048036038101906101e39190613d0f565b610bbb565b6040516101f5919061498a565b60405180910390f35b61021860048036038101906102139190613ddb565b610c14565b005b610234600480360381019061022f9190613d74565b610e73565b005b610250600480360381019061024b9190613d38565b6117dc565b60405161025f93929190614ade565b60405180910390f35b610282600480360381019061027d9190613d0f565b6118a8565b60405161028f91906149a5565b60405180910390f35b6102b260048036038101906102ad9190613d0f565b611acf565b6040516102bf9190614dda565b60405180910390f35b6102e260048036038101906102dd9190613e1c565b611bbc565b005b6102fe60048036038101906102f99190613d0f565b611e48565b60405161030b9190614924565b60405180910390f35b61032e60048036038101906103299190613d0f565b611f15565b604051610342989796959493929190614a3d565b60405180910390f35b61036560048036038101906103609190613d38565b612212565b604051610372919061498a565b60405180910390f35b61039560048036038101906103909190613d0f565b6122b1565b6040516103a29190614dda565b60405180910390f35b6103c560048036038101906103c09190613d0f565b6122fd565b6040516103d2919061498a565b60405180910390f35b6103f560048036038101906103f09190613d0f565b612356565b6040516104069594939291906149c7565b60405180910390f35b61042960048036038101906104249190613d0f565b612772565b6040516104369190614dda565b60405180910390f35b61045960048036038101906104549190613d0f565b612b9b565b005b61047560048036038101906104709190613d0f565b6130ea565b6040516104829190614dda565b60405180910390f35b6104936131c5565b6040516104a09190614924565b60405180910390f35b6104b16134f3565b6040516104be9190614968565b60405180910390f35b6060600560008373ffffffffffffffffffffffffffffffffffffffff1673ffffffffffffffffffffffffffffffffffffffff16815260200190815260200160002060050160009054906101000a900460ff16610558576040517f08c379a000000000000000000000000000000000000000000000000000000000815260040161054f90614cda565b60405180910390fd5b600360008373ffffffffffffffffffffffffffffffffffffffff1673ffffffffffffffffffffffffffffffffffffffff168152602001908152602001600020805480602002602001604051908101604052809291908181526020016000905b828210156106e557838290600052602060002090600402016040518060800160405290816000820160009054906101000a900473ffffffffffffffffffffffffffffffffffffffff1673ffffffffffffffffffffffffffffffffffffffff1673ffffffffffffffffffffffffffffffffffffffff1681526020016001820154815260200160028201805461064a9061517e565b80601f01602080910402602001604051908101604052809291908181526020018280546106769061517e565b80156106c35780601f10610698576101008083540402835291602001916106c3565b820191906000526020600020905b8154815290600101906020018083116106a657829003601f168201915b50505050508152602001600382015481525050815260200190600101906105b7565b505050509050919050565b600660003373ffffffffffffffffffffffffffffffffffffffff1673ffffffffffffffffffffffffffffffffffffffff16815260200190815260200160002060010160009054906101000a900460ff1661077f576040517f08c379a000000000000000000000000000000000000000000000000000000000815260040161077690614b7a565b60405180910390fd5b6000600182141561079357600a9050610807565b60028214156107a557601c9050610806565b60038214156107b757602e9050610805565b60048214156107c957605c9050610804565b6040517f08c379a00000000000000000000000000000000000000000000000000000000081526004016107fb90614d1a565b60405180910390fd5b5b5b5b80600660003373ffffffffffffffffffffffffffffffffffffffff1673ffffffffffffffffffffffffffffffffffffffff16815260200190815260200160002060000154101561088c576040517f08c379a000000000000000000000000000000000000000000000000000000000815260040161088390614bba565b60405180910390fd5b80600660003373ffffffffffffffffffffffffffffffffffffffff1673ffffffffffffffffffffffffffffffffffffffff16815260200190815260200160002060000160008282546108de9190615096565b9250508190555060006108ef613841565b9050600460003373ffffffffffffffffffffffffffffffffffffffff1673ffffffffffffffffffffffffffffffffffffffff16815260200190815260200160002060405180608001604052808381526020018581526020014281526020016000151581525090806001815401808255809150506001900390600052602060002090600402016000909190919091506000820151816000019080519060200190610999929190613bb0565b50602082015181600101556040820151816002015560608201518160030160006101000a81548160ff02191690831515021790555050503373ffffffffffffffffffffffffffffffffffffffff167f4e76800aa0f9e8b80efbd9ba079cddb4f6a67e5291428b9365a0dfed95b708f6828486604051610a1a93929190614b1c565b60405180910390a2505050565b60066020528060005260406000206000915090508060000154908060010160009054906101000a900460ff16905082565b600660003373ffffffffffffffffffffffffffffffffffffffff1673ffffffffffffffffffffffffffffffffffffffff16815260200190815260200160002060010160009054906101000a900460ff1615610ae8576040517f08c379a0000000000000000000000000000000000000000000000000000000008152600401610adf90614d5a565b60405180910390fd5b60405180604001604052806000815260200160011515815250600660003373ffffffffffffffffffffffffffffffffffffffff1673ffffffffffffffffffffffffffffffffffffffff1681526020019081526020016000206000820151816000015560208201518160010160006101000a81548160ff0219169083151502179055509050503373ffffffffffffffffffffffffffffffffffffffff167f48cac28ad4dc618e15f4c2dd5e97751182f166de97b25618318b2112aa951a2f604051610bb190614d3a565b60405180910390a2565b6000600560008373ffffffffffffffffffffffffffffffffffffffff1673ffffffffffffffffffffffffffffffffffffffff16815260200190815260200160002060050160009054906101000a900460ff169050919050565b600660003373ffffffffffffffffffffffffffffffffffffffff1673ffffffffffffffffffffffffffffffffffffffff16815260200190815260200160002060010160009054906101000a900460ff16610ca3576040517f08c379a0000000000000000000000000000000000000000000000000000000008152600401610c9a90614b7a565b60405180910390fd5b6000805b600460003373ffffffffffffffffffffffffffffffffffffffff1673ffffffffffffffffffffffffffffffffffffffff16815260200190815260200160002080549050811015610e2e576000600460003373ffffffffffffffffffffffffffffffffffffffff1673ffffffffffffffffffffffffffffffffffffffff1681526020019081526020016000208281548110610d6a577f4e487b7100000000000000000000000000000000000000000000000000000000600052603260045260246000fd5b90600052602060002090600402019050838051906020012081600001604051610d9391906148d0565b60405180910390201415610e1a578060030160009054906101000a900460ff1615610df3576040517f08c379a0000000000000000000000000000000000000000000000000000000008152600401610dea90614c7a565b60405180910390fd5b60018160030160006101000a81548160ff0219169083151502179055506001925050610e2e565b508080610e26906151b0565b915050610ca7565b5080610e6f576040517f08c379a0000000000000000000000000000000000000000000000000000000008152600401610e6690614bfa565b60405180910390fd5b5050565b600660003373ffffffffffffffffffffffffffffffffffffffff1673ffffffffffffffffffffffffffffffffffffffff16815260200190815260200160002060010160009054906101000a900460ff16610f02576040517f08c379a0000000000000000000000000000000000000000000000000000000008152600401610ef990614bda565b60405180910390fd5b600560008473ffffffffffffffffffffffffffffffffffffffff1673ffffffffffffffffffffffffffffffffffffffff16815260200190815260200160002060050160009054906101000a900460ff16610f91576040517f08c379a0000000000000000000000000000000000000000000000000000000008152600401610f8890614cda565b60405180910390fd5b60008210158015610fa3575060058211155b610fe2576040517f08c379a0000000000000000000000000000000000000000000000000000000008152600401610fd990614c5a565b60405180910390fd5b600760008473ffffffffffffffffffffffffffffffffffffffff1673ffffffffffffffffffffffffffffffffffffffff16815260200190815260200160002060003373ffffffffffffffffffffffffffffffffffffffff1673ffffffffffffffffffffffffffffffffffffffff16815260200190815260200160002060020160009054906101000a900460ff166110ae576040517f08c379a00000000000000000000000000000000000000000000000000000000081526004016110a590614b9a565b60405180910390fd5b6110b88333612212565b156110f8576040517f08c379a00000000000000000000000000000000000000000000000000000000081526004016110ef90614cba565b60405180910390fd5b6203f480600260003373ffffffffffffffffffffffffffffffffffffffff1673ffffffffffffffffffffffffffffffffffffffff16815260200190815260200160002060008573ffffffffffffffffffffffffffffffffffffffff1673ffffffffffffffffffffffffffffffffffffffff168152602001908152602001600020546111839190614fb5565b4210156111c5576040517f08c379a00000000000000000000000000000000000000000000000000000000081526004016111bc90614dba565b60405180910390fd5b600060405180608001604052803373ffffffffffffffffffffffffffffffffffffffff168152602001848152602001838152602001428152509050600360008573ffffffffffffffffffffffffffffffffffffffff1673ffffffffffffffffffffffffffffffffffffffff16815260200190815260200160002081908060018154018082558091505060019003906000526020600020906004020160009091909190915060008201518160000160006101000a81548173ffffffffffffffffffffffffffffffffffffffff021916908373ffffffffffffffffffffffffffffffffffffffff1602179055506020820151816001015560408201518160020190805190602001906112d6929190613bb0565b5060608201518160030155505082600560008673ffffffffffffffffffffffffffffffffffffffff1673ffffffffffffffffffffffffffffffffffffffff16815260200190815260200160002060060160008282546113359190614fb5565b925050819055506001600560008673ffffffffffffffffffffffffffffffffffffffff1673ffffffffffffffffffffffffffffffffffffffff168152602001908152602001600020600701600082825461138f9190614fb5565b925050819055506002600660003373ffffffffffffffffffffffffffffffffffffffff1673ffffffffffffffffffffffffffffffffffffffff16815260200190815260200160002060000160008282546113e99190614fb5565b925050819055508373ffffffffffffffffffffffffffffffffffffffff163373ffffffffffffffffffffffffffffffffffffffff167f2181d59f6db343f868c8326c7cbb82ad0212e2e9c84e104d3c2a665cb3fc2df285854260405161145193929190614e1e565b60405180910390a36000600760008673ffffffffffffffffffffffffffffffffffffffff1673ffffffffffffffffffffffffffffffffffffffff16815260200190815260200160002060003373ffffffffffffffffffffffffffffffffffffffff1673ffffffffffffffffffffffffffffffffffffffff16815260200190815260200160002060020160006101000a81548160ff02191690831515021790555042600260003373ffffffffffffffffffffffffffffffffffffffff1673ffffffffffffffffffffffffffffffffffffffff16815260200190815260200160002060008673ffffffffffffffffffffffffffffffffffffffff1673ffffffffffffffffffffffffffffffffffffffff168152602001908152602001600020819055506000600160003373ffffffffffffffffffffffffffffffffffffffff1673ffffffffffffffffffffffffffffffffffffffff168152602001908152602001600020905060005b81805490508110156117d4578573ffffffffffffffffffffffffffffffffffffffff16828281548110611614577f4e487b7100000000000000000000000000000000000000000000000000000000600052603260045260246000fd5b9060005260206000200160009054906101000a900473ffffffffffffffffffffffffffffffffffffffff1673ffffffffffffffffffffffffffffffffffffffff1614156117c157816001838054905061166d9190615096565b815481106116a4577f4e487b7100000000000000000000000000000000000000000000000000000000600052603260045260246000fd5b9060005260206000200160009054906101000a900473ffffffffffffffffffffffffffffffffffffffff16828281548110611708577f4e487b7100000000000000000000000000000000000000000000000000000000600052603260045260246000fd5b9060005260206000200160006101000a81548173ffffffffffffffffffffffffffffffffffffffff021916908373ffffffffffffffffffffffffffffffffffffffff16021790555081805480611787577f4e487b7100000000000000000000000000000000000000000000000000000000600052603160045260246000fd5b6001900381819060005260206000200160006101000a81549073ffffffffffffffffffffffffffffffffffffffff021916905590556117d4565b80806117cc906151b0565b9150506115b8565b505050505050565b60076020528160005260406000206020528060005260406000206000915091505080600001805461180c9061517e565b80601f01602080910402602001604051908101604052809291908181526020018280546118389061517e565b80156118855780601f1061185a57610100808354040283529160200191611885565b820191906000526020600020905b81548152906001019060200180831161186857829003601f168201915b5050505050908060010154908060020160009054906101000a900460ff16905083565b6060600760008373ffffffffffffffffffffffffffffffffffffffff1673ffffffffffffffffffffffffffffffffffffffff16815260200190815260200160002060003373ffffffffffffffffffffffffffffffffffffffff1673ffffffffffffffffffffffffffffffffffffffff16815260200190815260200160002060020160009054906101000a900460ff16611976576040517f08c379a000000000000000000000000000000000000000000000000000000000815260040161196d90614c9a565b60405180910390fd5b6119808233612212565b156119c0576040517f08c379a00000000000000000000000000000000000000000000000000000000081526004016119b790614cba565b60405180910390fd5b600760008373ffffffffffffffffffffffffffffffffffffffff1673ffffffffffffffffffffffffffffffffffffffff16815260200190815260200160002060003373ffffffffffffffffffffffffffffffffffffffff1673ffffffffffffffffffffffffffffffffffffffff1681526020019081526020016000206000018054611a4a9061517e565b80601f0160208091040260200160405190810160405280929190818152602001828054611a769061517e565b8015611ac35780601f10611a9857610100808354040283529160200191611ac3565b820191906000526020600020905b815481529060010190602001808311611aa657829003601f168201915b50505050509050919050565b600080600760008473ffffffffffffffffffffffffffffffffffffffff1673ffffffffffffffffffffffffffffffffffffffff16815260200190815260200160002060003373ffffffffffffffffffffffffffffffffffffffff1673ffffffffffffffffffffffffffffffffffffffff16815260200190815260200160002090508060020160009054906101000a900460ff16611ba1576040517f08c379a0000000000000000000000000000000000000000000000000000000008152600401611b9890614c3a565b60405180910390fd5b6203f4808160010154611bb49190614fb5565b915050919050565b600560003373ffffffffffffffffffffffffffffffffffffffff1673ffffffffffffffffffffffffffffffffffffffff16815260200190815260200160002060050160009054906101000a900460ff1615611c4c576040517f08c379a0000000000000000000000000000000000000000000000000000000008152600401611c4390614c1a565b60405180910390fd5b604051806101000160405280868152602001858152602001848152602001838152602001828152602001600115158152602001600081526020016000815250600560003373ffffffffffffffffffffffffffffffffffffffff1673ffffffffffffffffffffffffffffffffffffffff1681526020019081526020016000206000820151816000019080519060200190611ce6929190613bb0565b506020820151816001019080519060200190611d03929190613bb0565b506040820151816002019080519060200190611d20929190613bb0565b506060820151816003019080519060200190611d3d929190613bb0565b506080820151816004019080519060200190611d5a929190613bb0565b5060a08201518160050160006101000a81548160ff02191690831515021790555060c0820151816006015560e082015181600701559050506000339080600181540180825580915050600190039060005260206000200160009091909190916101000a81548173ffffffffffffffffffffffffffffffffffffffff021916908373ffffffffffffffffffffffffffffffffffffffff1602179055503373ffffffffffffffffffffffffffffffffffffffff167f48cac28ad4dc618e15f4c2dd5e97751182f166de97b25618318b2112aa951a2f604051611e3990614cfa565b60405180910390a25050505050565b6060600160008373ffffffffffffffffffffffffffffffffffffffff1673ffffffffffffffffffffffffffffffffffffffff168152602001908152602001600020805480602002602001604051908101604052809291908181526020018280548015611f0957602002820191906000526020600020905b8160009054906101000a900473ffffffffffffffffffffffffffffffffffffffff1673ffffffffffffffffffffffffffffffffffffffff1681526020019060010190808311611ebf575b50505050509050919050565b6005602052806000526040600020600091509050806000018054611f389061517e565b80601f0160208091040260200160405190810160405280929190818152602001828054611f649061517e565b8015611fb15780601f10611f8657610100808354040283529160200191611fb1565b820191906000526020600020905b815481529060010190602001808311611f9457829003601f168201915b505050505090806001018054611fc69061517e565b80601f0160208091040260200160405190810160405280929190818152602001828054611ff29061517e565b801561203f5780601f106120145761010080835404028352916020019161203f565b820191906000526020600020905b81548152906001019060200180831161202257829003601f168201915b5050505050908060020180546120549061517e565b80601f01602080910402602001604051908101604052809291908181526020018280546120809061517e565b80156120cd5780601f106120a2576101008083540402835291602001916120cd565b820191906000526020600020905b8154815290600101906020018083116120b057829003601f168201915b5050505050908060030180546120e29061517e565b80601f016020809104026020016040519081016040528092919081815260200182805461210e9061517e565b801561215b5780601f106121305761010080835404028352916020019161215b565b820191906000526020600020905b81548152906001019060200180831161213e57829003601f168201915b5050505050908060040180546121709061517e565b80601f016020809104026020016040519081016040528092919081815260200182805461219c9061517e565b80156121e95780601f106121be576101008083540402835291602001916121e9565b820191906000526020600020905b8154815290600101906020018083116121cc57829003601f168201915b5050505050908060050160009054906101000a900460ff16908060060154908060070154905088565b600080600760008573ffffffffffffffffffffffffffffffffffffffff1673ffffffffffffffffffffffffffffffffffffffff16815260200190815260200160002060008473ffffffffffffffffffffffffffffffffffffffff1673ffffffffffffffffffffffffffffffffffffffff1681526020019081526020016000206001015490506203f480816122a69190614fb5565b421191505092915050565b6000600360008373ffffffffffffffffffffffffffffffffffffffff1673ffffffffffffffffffffffffffffffffffffffff168152602001908152602001600020805490509050919050565b6000600660008373ffffffffffffffffffffffffffffffffffffffff1673ffffffffffffffffffffffffffffffffffffffff16815260200190815260200160002060010160009054906101000a900460ff169050919050565b6060806060806060600560008773ffffffffffffffffffffffffffffffffffffffff1673ffffffffffffffffffffffffffffffffffffffff16815260200190815260200160002060050160009054906101000a900460ff166123ed576040517f08c379a00000000000000000000000000000000000000000000000000000000081526004016123e490614cda565b60405180910390fd5b6000600560008873ffffffffffffffffffffffffffffffffffffffff1673ffffffffffffffffffffffffffffffffffffffff1681526020019081526020016000206040518061010001604052908160008201805461244a9061517e565b80601f01602080910402602001604051908101604052809291908181526020018280546124769061517e565b80156124c35780601f10612498576101008083540402835291602001916124c3565b820191906000526020600020905b8154815290600101906020018083116124a657829003601f168201915b505050505081526020016001820180546124dc9061517e565b80601f01602080910402602001604051908101604052809291908181526020018280546125089061517e565b80156125555780601f1061252a57610100808354040283529160200191612555565b820191906000526020600020905b81548152906001019060200180831161253857829003601f168201915b5050505050815260200160028201805461256e9061517e565b80601f016020809104026020016040519081016040528092919081815260200182805461259a9061517e565b80156125e75780601f106125bc576101008083540402835291602001916125e7565b820191906000526020600020905b8154815290600101906020018083116125ca57829003601f168201915b505050505081526020016003820180546126009061517e565b80601f016020809104026020016040519081016040528092919081815260200182805461262c9061517e565b80156126795780601f1061264e57610100808354040283529160200191612679565b820191906000526020600020905b81548152906001019060200180831161265c57829003601f168201915b505050505081526020016004820180546126929061517e565b80601f01602080910402602001604051908101604052809291908181526020018280546126be9061517e565b801561270b5780601f106126e05761010080835404028352916020019161270b565b820191906000526020600020905b8154815290600101906020018083116126ee57829003601f168201915b505050505081526020016005820160009054906101000a900460ff1615151515815260200160068201548152602001600782015481525050905080600001518160200151826040015183606001518460800151955095509550955095505091939590929450565b6000600560008373ffffffffffffffffffffffffffffffffffffffff1673ffffffffffffffffffffffffffffffffffffffff16815260200190815260200160002060050160009054906101000a900460ff16612803576040517f08c379a00000000000000000000000000000000000000000000000000000000081526004016127fa90614cda565b60405180910390fd5b6000600560008473ffffffffffffffffffffffffffffffffffffffff1673ffffffffffffffffffffffffffffffffffffffff168152602001908152602001600020604051806101000160405290816000820180546128609061517e565b80601f016020809104026020016040519081016040528092919081815260200182805461288c9061517e565b80156128d95780601f106128ae576101008083540402835291602001916128d9565b820191906000526020600020905b8154815290600101906020018083116128bc57829003601f168201915b505050505081526020016001820180546128f29061517e565b80601f016020809104026020016040519081016040528092919081815260200182805461291e9061517e565b801561296b5780601f106129405761010080835404028352916020019161296b565b820191906000526020600020905b81548152906001019060200180831161294e57829003601f168201915b505050505081526020016002820180546129849061517e565b80601f01602080910402602001604051908101604052809291908181526020018280546129b09061517e565b80156129fd5780601f106129d2576101008083540402835291602001916129fd565b820191906000526020600020905b8154815290600101906020018083116129e057829003601f168201915b50505050508152602001600382018054612a169061517e565b80601f0160208091040260200160405190810160405280929190818152602001828054612a429061517e565b8015612a8f5780601f10612a6457610100808354040283529160200191612a8f565b820191906000526020600020905b815481529060010190602001808311612a7257829003601f168201915b50505050508152602001600482018054612aa89061517e565b80601f0160208091040260200160405190810160405280929190818152602001828054612ad49061517e565b8015612b215780601f10612af657610100808354040283529160200191612b21565b820191906000526020600020905b815481529060010190602001808311612b0457829003601f168201915b505050505081526020016005820160009054906101000a900460ff1615151515815260200160068201548152602001600782015481525050905060008160e001511415612b72576000915050612b96565b8060e00151600a8260c00151612b88919061503c565b612b92919061500b565b9150505b919050565b600560003373ffffffffffffffffffffffffffffffffffffffff1673ffffffffffffffffffffffffffffffffffffffff16815260200190815260200160002060050160009054906101000a900460ff16612c2a576040517f08c379a0000000000000000000000000000000000000000000000000000000008152600401612c2190614d9a565b60405180910390fd5b600660008273ffffffffffffffffffffffffffffffffffffffff1673ffffffffffffffffffffffffffffffffffffffff16815260200190815260200160002060010160009054906101000a900460ff16612cb9576040517f08c379a0000000000000000000000000000000000000000000000000000000008152600401612cb090614d7a565b60405180910390fd5b6000600760003373ffffffffffffffffffffffffffffffffffffffff1673ffffffffffffffffffffffffffffffffffffffff16815260200190815260200160002060008373ffffffffffffffffffffffffffffffffffffffff1673ffffffffffffffffffffffffffffffffffffffff16815260200190815260200160002090508060020160009054906101000a900460ff1615612da857612d5a3383612212565b15612d9a576040517f08c379a0000000000000000000000000000000000000000000000000000000008152600401612d9190614b5a565b60405180910390fd5b4281600101819055506130e6565b6000612db26139f0565b9050604051806060016040528082815260200142815260200160011515815250600760003373ffffffffffffffffffffffffffffffffffffffff1673ffffffffffffffffffffffffffffffffffffffff16815260200190815260200160002060008573ffffffffffffffffffffffffffffffffffffffff1673ffffffffffffffffffffffffffffffffffffffff1681526020019081526020016000206000820151816000019080519060200190612e6a929190613bb0565b506020820151816001015560408201518160020160006101000a81548160ff0219169083151502179055509050508273ffffffffffffffffffffffffffffffffffffffff163373ffffffffffffffffffffffffffffffffffffffff167fe32d44297131358805d510ff6220b3c2afaefb00147716d5fd03950fae3955b783604051612ef591906149a5565b60405180910390a36000805b600160008673ffffffffffffffffffffffffffffffffffffffff1673ffffffffffffffffffffffffffffffffffffffff1681526020019081526020016000208054905081101561303c573373ffffffffffffffffffffffffffffffffffffffff16600160008773ffffffffffffffffffffffffffffffffffffffff1673ffffffffffffffffffffffffffffffffffffffff1681526020019081526020016000208281548110612fd9577f4e487b7100000000000000000000000000000000000000000000000000000000600052603260045260246000fd5b9060005260206000200160009054906101000a900473ffffffffffffffffffffffffffffffffffffffff1673ffffffffffffffffffffffffffffffffffffffff161415613029576001915061303c565b8080613034906151b0565b915050612f01565b50806130e357600160008573ffffffffffffffffffffffffffffffffffffffff1673ffffffffffffffffffffffffffffffffffffffff168152602001908152602001600020339080600181540180825580915050600190039060005260206000200160009091909190916101000a81548173ffffffffffffffffffffffffffffffffffffffff021916908373ffffffffffffffffffffffffffffffffffffffff1602179055505b50505b5050565b6000600660008373ffffffffffffffffffffffffffffffffffffffff1673ffffffffffffffffffffffffffffffffffffffff16815260200190815260200160002060010160009054906101000a900460ff1661317b576040517f08c379a000000000000000000000000000000000000000000000000000000000815260040161317290614b7a565b60405180910390fd5b600660008373ffffffffffffffffffffffffffffffffffffffff1673ffffffffffffffffffffffffffffffffffffffff168152602001908152602001600020600001549050919050565b60606000805b6000805490508110156132b25760056000808381548110613215577f4e487b7100000000000000000000000000000000000000000000000000000000600052603260045260246000fd5b9060005260206000200160009054906101000a900473ffffffffffffffffffffffffffffffffffffffff1673ffffffffffffffffffffffffffffffffffffffff1673ffffffffffffffffffffffffffffffffffffffff16815260200190815260200160002060050160009054906101000a900460ff161561329f57818061329b906151b0565b9250505b80806132aa906151b0565b9150506131cb565b5060008167ffffffffffffffff8111156132f5577f4e487b7100000000000000000000000000000000000000000000000000000000600052604160045260246000fd5b6040519080825280602002602001820160405280156133235781602001602082028036833780820191505090505b5090506000805b6000805490508110156134e95760056000808381548110613374577f4e487b7100000000000000000000000000000000000000000000000000000000600052603260045260246000fd5b9060005260206000200160009054906101000a900473ffffffffffffffffffffffffffffffffffffffff1673ffffffffffffffffffffffffffffffffffffffff1673ffffffffffffffffffffffffffffffffffffffff16815260200190815260200160002060050160009054906101000a900460ff16156134d65760008181548110613429577f4e487b7100000000000000000000000000000000000000000000000000000000600052603260045260246000fd5b9060005260206000200160009054906101000a900473ffffffffffffffffffffffffffffffffffffffff1683838151811061348d577f4e487b7100000000000000000000000000000000000000000000000000000000600052603260045260246000fd5b602002602001019073ffffffffffffffffffffffffffffffffffffffff16908173ffffffffffffffffffffffffffffffffffffffff168152505081806134d2906151b0565b9250505b80806134e1906151b0565b91505061332a565b5081935050505090565b6060600660003373ffffffffffffffffffffffffffffffffffffffff1673ffffffffffffffffffffffffffffffffffffffff16815260200190815260200160002060010160009054906101000a900460ff16613584576040517f08c379a000000000000000000000000000000000000000000000000000000000815260040161357b90614b7a565b60405180910390fd5b6000600460003373ffffffffffffffffffffffffffffffffffffffff1673ffffffffffffffffffffffffffffffffffffffff1681526020019081526020016000208054905067ffffffffffffffff811115613608577f4e487b7100000000000000000000000000000000000000000000000000000000600052604160045260246000fd5b60405190808252806020026020018201604052801561364157816020015b61362e613c36565b8152602001906001900390816136265790505b50905060005b600460003373ffffffffffffffffffffffffffffffffffffffff1673ffffffffffffffffffffffffffffffffffffffff1681526020019081526020016000208054905081101561383957600460003373ffffffffffffffffffffffffffffffffffffffff1673ffffffffffffffffffffffffffffffffffffffff1681526020019081526020016000208181548110613708577f4e487b7100000000000000000000000000000000000000000000000000000000600052603260045260246000fd5b90600052602060002090600402016040518060800160405290816000820180546137319061517e565b80601f016020809104026020016040519081016040528092919081815260200182805461375d9061517e565b80156137aa5780601f1061377f576101008083540402835291602001916137aa565b820191906000526020600020905b81548152906001019060200180831161378d57829003601f168201915b5050505050815260200160018201548152602001600282015481526020016003820160009054906101000a900460ff16151515158152505082828151811061381b577f4e487b7100000000000000000000000000000000000000000000000000000000600052603260045260246000fd5b60200260200101819052508080613831906151b0565b915050613647565b508091505090565b606060006040518060600160405280603e8152602001615361603e9139905060006008905060008167ffffffffffffffff8111156138a8577f4e487b7100000000000000000000000000000000000000000000000000000000600052604160045260246000fd5b6040519080825280601f01601f1916602001820160405280156138da5781602001600182028036833780820191505090505b50905060005b828110156139e65760008451423384604051602001613901939291906148e7565b6040516020818303038152906040528051906020012060001c6139249190615227565b905084818151811061395f577f4e487b7100000000000000000000000000000000000000000000000000000000600052603260045260246000fd5b602001015160f81c60f81b8383815181106139a3577f4e487b7100000000000000000000000000000000000000000000000000000000600052603260045260246000fd5b60200101907effffffffffffffffffffffffffffffffffffffffffffffffffffffffffffff1916908160001a9053505080806139de906151b0565b9150506138e0565b5080935050505090565b60606139fb42613a00565b905090565b60606000821415613a48576040518060400160405280600181526020017f30000000000000000000000000000000000000000000000000000000000000008152509050613bab565b600082905060005b60008214613a7a578080613a63906151b0565b915050600a82613a73919061500b565b9150613a50565b60008167ffffffffffffffff811115613abc577f4e487b7100000000000000000000000000000000000000000000000000000000600052604160045260246000fd5b6040519080825280601f01601f191660200182016040528015613aee5781602001600182028036833780820191505090505b50905060008290505b60008614613ba357600a86613b0c9190615227565b6030613b189190614fb5565b60f81b8282613b2690615154565b92508281518110613b60577f4e487b7100000000000000000000000000000000000000000000000000000000600052603260045260246000fd5b60200101907effffffffffffffffffffffffffffffffffffffffffffffffffffffffffffff1916908160001a905350600a86613b9c919061500b565b9550613af7565b819450505050505b919050565b828054613bbc9061517e565b90600052602060002090601f016020900481019282613bde5760008555613c25565b82601f10613bf757805160ff1916838001178555613c25565b82800160010185558215613c25579182015b82811115613c24578251825591602001919060010190613c09565b5b509050613c329190613c60565b5090565b60405180608001604052806060815260200160008152602001600081526020016000151581525090565b5b80821115613c79576000816000905550600101613c61565b5090565b6000613c90613c8b84614e8d565b614e5c565b905082815260208101848484011115613ca857600080fd5b613cb3848285615112565b509392505050565b600081359050613cca81615332565b92915050565b600082601f830112613ce157600080fd5b8135613cf1848260208601613c7d565b91505092915050565b600081359050613d0981615349565b92915050565b600060208284031215613d2157600080fd5b6000613d2f84828501613cbb565b91505092915050565b60008060408385031215613d4b57600080fd5b6000613d5985828601613cbb565b9250506020613d6a85828601613cbb565b9150509250929050565b600080600060608486031215613d8957600080fd5b6000613d9786828701613cbb565b9350506020613da886828701613cfa565b925050604084013567ffffffffffffffff811115613dc557600080fd5b613dd186828701613cd0565b9150509250925092565b600060208284031215613ded57600080fd5b600082013567ffffffffffffffff811115613e0757600080fd5b613e1384828501613cd0565b91505092915050565b600080600080600060a08688031215613e3457600080fd5b600086013567ffffffffffffffff811115613e4e57600080fd5b613e5a88828901613cd0565b955050602086013567ffffffffffffffff811115613e7757600080fd5b613e8388828901613cd0565b945050604086013567ffffffffffffffff811115613ea057600080fd5b613eac88828901613cd0565b935050606086013567ffffffffffffffff811115613ec957600080fd5b613ed588828901613cd0565b925050608086013567ffffffffffffffff811115613ef257600080fd5b613efe88828901613cd0565b9150509295509295909350565b600060208284031215613f1d57600080fd5b6000613f2b84828501613cfa565b91505092915050565b6000613f408383613f74565b60208301905092915050565b6000613f5883836147d5565b905092915050565b6000613f6c8383614838565b905092915050565b613f7d816150ca565b82525050565b613f94613f8f826150ca565b6151f9565b82525050565b6000613fa582614f02565b613faf8185614f55565b9350613fba83614ebd565b8060005b83811015613feb578151613fd28882613f34565b9750613fdd83614f2e565b925050600181019050613fbe565b5085935050505092915050565b600061400382614f0d565b61400d8185614f66565b93508360208202850161401f85614ecd565b8060005b8581101561405b578484038952815161403c8582613f4c565b945061404783614f3b565b925060208a01995050600181019050614023565b50829750879550505050505092915050565b600061407882614f18565b6140828185614f77565b93508360208202850161409485614edd565b8060005b858110156140d057848403895281516140b18582613f60565b94506140bc83614f48565b925060208a01995050600181019050614098565b50829750879550505050505092915050565b6140eb816150dc565b82525050565b6140fa816150dc565b82525050565b6000815461410d8161517e565b6141178186614f88565b94506001821660008114614132576001811461414357614176565b60ff19831686528186019350614176565b61414c85614eed565b60005b8381101561416e5781548189015260018201915060208101905061414f565b838801955050505b50505092915050565b600061418a82614f23565b6141948185614f93565b93506141a4818560208601615121565b6141ad81615314565b840191505092915050565b60006141c382614f23565b6141cd8185614fa4565b93506141dd818560208601615121565b6141e681615314565b840191505092915050565b60006141fe602583614fa4565b91507f4578697374696e6720766572696669636174696f6e20636f646520697320657860008301527f70697265640000000000000000000000000000000000000000000000000000006020830152604082019050919050565b6000614264601783614fa4565b91507f437573746f6d6572206e6f7420726567697374657265640000000000000000006000830152602082019050919050565b60006142a4603283614fa4565b91507f4e6f2076616c696420766572696669636174696f6e20636f646520697373756560008301527f6420746f207468697320637573746f6d657200000000000000000000000000006020830152604082019050919050565b600061430a601183614fa4565b91507f4e6f7420656e6f75676820706f696e74730000000000000000000000000000006000830152602082019050919050565b600061434a602c83614fa4565b91507f4f6e6c79207265676973746572656420637573746f6d6572732063616e206c6560008301527f61766520612072657669657700000000000000000000000000000000000000006020830152604082019050919050565b60006143b0601183614fa4565b91507f566f7563686572206e6f7420666f756e640000000000000000000000000000006000830152602082019050919050565b60006143f0601883614fa4565b91507f4f776e657220616c7265616479207265676973746572656400000000000000006000830152602082019050919050565b6000614430601b83614fa4565b91507f4e6f20766572696669636174696f6e20636f64652069737375656400000000006000830152602082019050919050565b6000614470601e83614fa4565b91507f526174696e67206d757374206265206265747765656e203020616e64203500006000830152602082019050919050565b60006144b0601483614fa4565b91507f566f756368657220616c726561647920757365640000000000000000000000006000830152602082019050919050565b60006144f0602c83614fa4565b91507f4e6f20766572696669636174696f6e20636f64652069737375656420746f207460008301527f68697320637573746f6d657200000000000000000000000000000000000000006020830152604082019050919050565b6000614556601d83614fa4565b91507f566572696669636174696f6e20636f64652068617320657870697265640000006000830152602082019050919050565b6000614596601483614fa4565b91507f4f776e6572206e6f7420726567697374657265640000000000000000000000006000830152602082019050919050565b60006145d6600583614fa4565b91507f4f776e65720000000000000000000000000000000000000000000000000000006000830152602082019050919050565b6000614616601483614fa4565b91507f496e76616c696420766f756368657220747970650000000000000000000000006000830152602082019050919050565b6000614656600883614fa4565b91507f437573746f6d65720000000000000000000000000000000000000000000000006000830152602082019050919050565b6000614696601b83614fa4565b91507f437573746f6d657220616c7265616479207265676973746572656400000000006000830152602082019050919050565b60006146d6601b83614fa4565b91507f437573746f6d6572206d757374206265207265676973746572656400000000006000830152602082019050919050565b6000614716602683614fa4565b91507f4f6e6c792072656769737465726564206f776e6572732063616e20697373756560008301527f20636f64657300000000000000000000000000000000000000000000000000006020830152604082019050919050565b600061477c603e83614fa4565b91507f596f752063616e206f6e6c79206c6561766520612072657669657720666f722060008301527f74686973206f776e6572206f6e636520657665727920323420686f75727300006020830152604082019050919050565b60006080830160008301516147ed6000860182613f74565b506020830151614800602086018261489b565b5060408301518482036040860152614818828261417f565b915050606083015161482d606086018261489b565b508091505092915050565b60006080830160008301518482036000860152614855828261417f565b915050602083015161486a602086018261489b565b50604083015161487d604086018261489b565b50606083015161489060608601826140e2565b508091505092915050565b6148a481615108565b82525050565b6148b381615108565b82525050565b6148ca6148c582615108565b61521d565b82525050565b60006148dc8284614100565b915081905092915050565b60006148f382866148b9565b6020820191506149038285613f83565b60148201915061491382846148b9565b602082019150819050949350505050565b6000602082019050818103600083015261493e8184613f9a565b905092915050565b600060208201905081810360008301526149608184613ff8565b905092915050565b60006020820190508181036000830152614982818461406d565b905092915050565b600060208201905061499f60008301846140f1565b92915050565b600060208201905081810360008301526149bf81846141b8565b905092915050565b600060a08201905081810360008301526149e181886141b8565b905081810360208301526149f581876141b8565b90508181036040830152614a0981866141b8565b90508181036060830152614a1d81856141b8565b90508181036080830152614a3181846141b8565b90509695505050505050565b6000610100820190508181036000830152614a58818b6141b8565b90508181036020830152614a6c818a6141b8565b90508181036040830152614a8081896141b8565b90508181036060830152614a9481886141b8565b90508181036080830152614aa881876141b8565b9050614ab760a08301866140f1565b614ac460c08301856148aa565b614ad160e08301846148aa565b9998505050505050505050565b60006060820190508181036000830152614af881866141b8565b9050614b0760208301856148aa565b614b1460408301846140f1565b949350505050565b60006060820190508181036000830152614b3681866141b8565b9050614b4560208301856148aa565b614b5260408301846148aa565b949350505050565b60006020820190508181036000830152614b73816141f1565b9050919050565b60006020820190508181036000830152614b9381614257565b9050919050565b60006020820190508181036000830152614bb381614297565b9050919050565b60006020820190508181036000830152614bd3816142fd565b9050919050565b60006020820190508181036000830152614bf38161433d565b9050919050565b60006020820190508181036000830152614c13816143a3565b9050919050565b60006020820190508181036000830152614c33816143e3565b9050919050565b60006020820190508181036000830152614c5381614423565b9050919050565b60006020820190508181036000830152614c7381614463565b9050919050565b60006020820190508181036000830152614c93816144a3565b9050919050565b60006020820190508181036000830152614cb3816144e3565b9050919050565b60006020820190508181036000830152614cd381614549565b9050919050565b60006020820190508181036000830152614cf381614589565b9050919050565b60006020820190508181036000830152614d13816145c9565b9050919050565b60006020820190508181036000830152614d3381614609565b9050919050565b60006020820190508181036000830152614d5381614649565b9050919050565b60006020820190508181036000830152614d7381614689565b9050919050565b60006020820190508181036000830152614d93816146c9565b9050919050565b60006020820190508181036000830152614db381614709565b9050919050565b60006020820190508181036000830152614dd38161476f565b9050919050565b6000602082019050614def60008301846148aa565b92915050565b6000604082019050614e0a60008301856148aa565b614e1760208301846140f1565b9392505050565b6000606082019050614e3360008301866148aa565b8181036020830152614e4581856141b8565b9050614e5460408301846148aa565b949350505050565b6000604051905081810181811067ffffffffffffffff82111715614e8357614e826152e5565b5b8060405250919050565b600067ffffffffffffffff821115614ea857614ea76152e5565b5b601f19601f8301169050602081019050919050565b6000819050602082019050919050565b6000819050602082019050919050565b6000819050602082019050919050565b60008190508160005260206000209050919050565b600081519050919050565b600081519050919050565b600081519050919050565b600081519050919050565b6000602082019050919050565b6000602082019050919050565b6000602082019050919050565b600082825260208201905092915050565b600082825260208201905092915050565b600082825260208201905092915050565b600081905092915050565b600082825260208201905092915050565b600082825260208201905092915050565b6000614fc082615108565b9150614fcb83615108565b9250827fffffffffffffffffffffffffffffffffffffffffffffffffffffffffffffffff0382111561500057614fff615258565b5b828201905092915050565b600061501682615108565b915061502183615108565b92508261503157615030615287565b5b828204905092915050565b600061504782615108565b915061505283615108565b9250817fffffffffffffffffffffffffffffffffffffffffffffffffffffffffffffffff048311821515161561508b5761508a615258565b5b828202905092915050565b60006150a182615108565b91506150ac83615108565b9250828210156150bf576150be615258565b5b828203905092915050565b60006150d5826150e8565b9050919050565b60008115159050919050565b600073ffffffffffffffffffffffffffffffffffffffff82169050919050565b6000819050919050565b82818337600083830152505050565b60005b8381101561513f578082015181840152602081019050615124565b8381111561514e576000848401525b50505050565b600061515f82615108565b9150600082141561517357615172615258565b5b600182039050919050565b6000600282049050600182168061519657607f821691505b602082108114156151aa576151a96152b6565b5b50919050565b60006151bb82615108565b91507fffffffffffffffffffffffffffffffffffffffffffffffffffffffffffffffff8214156151ee576151ed615258565b5b600182019050919050565b60006152048261520b565b9050919050565b600061521682615325565b9050919050565b6000819050919050565b600061523282615108565b915061523d83615108565b92508261524d5761524c615287565b5b828206905092915050565b7f4e487b7100000000000000000000000000000000000000000000000000000000600052601160045260246000fd5b7f4e487b7100000000000000000000000000000000000000000000000000000000600052601260045260246000fd5b7f4e487b7100000000000000000000000000000000000000000000000000000000600052602260045260246000fd5b7f4e487b7100000000000000000000000000000000000000000000000000000000600052604160045260246000fd5b6000601f19601f8301169050919050565b60008160601b9050919050565b61533b816150ca565b811461534657600080fd5b50565b61535281615108565b811461535d57600080fd5b5056fe4142434445464748494a4b4c4d4e4f505152535455565758595a6162636465666768696a6b6c6d6e6f707172737475767778797a30313233343536373839a2646970667358221220a727e0b7246e4abf548ef5fff15feb23c044c963c82d59816bca596056f21a6e64736f6c63430008000033",
  "linkReferences": {},
  "deployedLinkReferences": {}
}